:030000000207F6FE
:0C07F600787FE4F6D8FD75813A02083DDA
:0D0B9600EFD3940040077E6EDEFE1F80F35B
:010BA300222F
:100A1400120AF7120AF2120AF27F01120B967D01F2
:100A24007C007F38120AFC7D017C007F0C120AFCDA
:100A34007D017C007F06120AFC7D017C007F01029F
:020A44000AFCAA
:100B6600758080C295D296D297E58020E7FB7F00FC
:010B7600225C
:0A0AF2007F01120B96E4FDFC7F3833
:100AFC00AE07ED4C6003120B668E80C295C296C297
:040B0C0097D29722C3
:100B7700AE07120B668E80D295C296C297D2972285
:10002600AE07ED6003430640430680AF067D017CC4
:0900360000120AFCAF03020B7773
:080A78008D378A388B39A9077C
:100A8000E4FAE5392AF582E43538F583E493FB602E
:100A900011E9D3940F50EBAF01AD371200260A09CC
:020AA00080E0F4
:010AA2002231
:100A46002030303A30303A30302052203030204F8B
:100A560000436F6E6E656374696E672E2E2E004EB0
:100A66003A00543D303020483D303020413D303052
:020A760030004E
:10000300E4FDFCC3ED9FEC9E5015E4FBFA0BBB0033
:0F001300010AEB646E4A70F50DBD00010C80E42C
:0100220022BB
:0E0BA400C2A07F017E00120003D2A002000357
:0C0BB2007F167E037DE3DDFEDEFCDFFA33
:010BBE002214
:100B1000120A147A0A7B46E4FDFF120A787A0A7BED
:080B2000577D01E4FF020A7891
:100B3E00751E01E51E600D7F41120BBF120BB2E553
:050B4E001E70F02222E0
:1006A5007BFF7A0A7965120ACDA294E4332430FFE0
:1006B500120BBF7F3A120BBF7F38120BBF7F3A1266
:1006C5000BBFE52275F00A842430FF120BBFE5222B
:1006D50075F00A84E5F02430FF120BBF7F3A120B48
:1006E500BFE52F75F00A842430FF120BBFE52F7587
:1006F500F00A84E5F02430FF120BBF7F3A120BBFDE
:10070500AF0BAE0AAD09AC0812039B7C007D6412E9
:1007150004577C007D0A120457ED2430FF120BBFED
:10072500AF0BAE0AAD09AC0812039B7C007D0A1223
:1007350004577C007D0A120457ED2430FF120BBFCD
:10074500AF0BAE0AAD09AC0812039B7C007D0A1203
:090755000457ED2430FF020BBF34
:1004F000E4F535F536120B10D2A7D2A6D2A5D2A4B8
:10050000D2A3D2A2D294E4F5D8F5E9F5F9F5D975DC
:10051000FAA075EAA0F5F275DA42D2DE120B531298
:100520000B28120B3E7B4EE4FD7F0F1200267A0A49
:100530007B687D01E4FF120A78E4F5957596011257
:100540000BA4AA19AB1AE4FD7F01120A78309404B7
:100550007B5280027B53E4FD7F0A120026E51FC414
:1005600054F0F5FAF5EAE51F75F00A84FBE4FD7F27
:100570000C120026E51F75F00A84ABF0E4FD7F0D38
:1005800012002612096EE52275F00A842430FB7DE4
:10059000017F02120026E52275F00A84E5F024307E
:1005A000FB7D017F03120026E52F75F00A842430BD
:1005B000FB7D017F07120026E52F75F00A84E5F028
:1005C0002430FB7D017F08120026AF0BAE0AAD0977
:1005D000AC0812039B7C007D641204577C007D0AEA
:1005E000120457ED2430FB7D017F0C120026AF0B67
:1005F000AE0AAD09AC0812039B7C007D0A120457B9
:100600007C007D0A120457ED2430FB7D017F0D1222
:100610000026AF0BAE0AAD09AC0812039B7C007D2F
:100620000A120457ED2430FB7D017F0E120026E4F0
:10063000FFFE7DC87C42AB0BAA0AA909A8081202DA
:10064000E460434041D294E4FBFA79207841AF0B57
:10065000AE0AAD09AC08120247E4FBFA79707841A2
:100660001202E460194017E4FBFA79207841AF0BDD
:10067000AE0AAD09AC0812024712039B80047E004B
:100680007F0F8F1F8019E4FFFE7DA07C42AB0BAA79
:100690000AA909A8081202E45005C294751F0A129B
:0506A00006A502054261
:030BCB00120BCE3C
:070BCE000000007F18DFFEAC
:010BD50022FD
:0E0B870000007F017EC27D9FDDFEDEFCDFFAF6
:010B9500223D
:1009D400E4FE752A0220B307AF2A052AEF70F61247
:1009E4000BCB120BCEE4F52E30B303752E01752A12
:1009F4000230B307AF2A052AEF70F6E52A640160D6
:0F0A04000EE53425E0F534E52E42340EBE08C36E
:010A130022C0
:10096E00C2B3120B87D2B3120BCBD2B320B35675D0
:10097E002A0220B307AF2A052AEF70F6752A023035
:10098E00B307AF2A052AEF70F61209D48534311257
:10099E0009D48534321209D48534241209D485340D
:1009AE00251209D485342DD2B3E5242525253125EC
:1009BE0032F52EB52D0F85312F85323085242285C7
:0609CE002523852D2B22DC
:090BD60030303A30303A30300082
:100AA30002200000080CAA0000000000FF0004144C
:100AB30000000000040800000000011F0A021C03DC
:090AC300200318FF0BD6011B00F3
:100B2800758921758DFD758BFDD28ED29CC29FD2A1
:060B38009ED2AFD2AC22F8
:0C0BBF00C2AC8F993099FDC299D2AC22D3
:100B5300538EF7759A50438E04759C70438E1075AF
:030B6300AF0122BD
:100ACD008B378A388939AB37AA38A93912041C609B
:100ADD00130539E5397002053814F912041CFF129B
:050AED000BBF80E222B6
:030023000208824E
:10088200C0E0C083C082C0D075D000C000C001C02B
:1008920002C003C00630984EC298E599B447067567
:1008A2001E00751B01E51BD394004022E51B940931
:1008B200501C7E0074FF251BF582EE34FFF583ABDE
:1008C20018AA19A91AE599120435051B8003751B8C
:1008D20000E599B44D02B294E599B45502151FE5AD
:1008E20099B44402051FD006D003D002D001D00033
:0908F200D0D0D082D083D0E032D6
:030043000208FBB5
:1008FB00C0E0C0F0C083C082C0D075D000C000C0C3
:10090B0001C002C003C004C005C006C007C2AFE5EA
:10091B009A30E032539AFE740C2521F8A69BE59B86
:10092B00B4FF0E75200075210012075E7513FF8052
:10093B0015E59BB4AA0875200075210180080521D7
:10094B00E52170020520D2AFD007D006D005D00428
:10095B00D003D002D001D000D0D0D082D083D0F041
:03096B00D0E032A7
:10075E00E4F53AE50D250EFFE433FE7C00EF250FA0
:10076E00FFEC3EFEEF2510FFEC3EFEE5116F700133
:10077E00EE7060AC0D120367E4FBFA7980784312D9
:10078E00013EC004C005C006C007AC0EE4120367EC
:10079E00D003D002D001D00012004DE4FBFA7980D4
:1007AE007844120247E4FBFA79A0784012013E8F9A
:1007BE00178E168D158C14AC1CAD1DE4120362AB96
:1007CE0017AA16A915A81412013E8F0B8E0A8D09B1
:1007DE008C0822E4F517F516F515F514F50B750AC8
:0707EE00C07509797508448C
:0107F50022E1
:10004600020407E86480F8E933E83360110460F0DD
:10005600ED33EC337009E8FCE9FDEAFEEBFF220420
:1000660060DED3EB9FEA9EE99DE8C2E78CF0C2F71B
:1000760095F0400CE8CCF8E9CDF9EACEFAEBCFFBE7
:100086001203D285D0F05804700320D5B3E804706B
:10009600075002B2D502041192D5EC0460F7E4CC05
:1000A600C0E0C398F8603B94186008400DD0E0FBB0
:1000B6000203E9E4FBFAC9FC8028E830E406E4C957
:1000C600FBE4CAFCE830E305E4C9CACBFCE8540704
:1000D6006010F8C3E913F9EA13FAEB13FBEC13FC0F
:1000E600D8F130F52FC3E49CFCEF9BFFEE9AFEEDB2
:1000F60099FDD0E0FBEF4E4D4C701222DB0302045B
:100106000EEC2CFCEF33FFEE33FEED33FDED30E766
:10011600EB0203E9EF2BFFEE3AFEED39FDD0E0FBF3
:1001260050130BBB0003020411ED13FDEE13FEEF9B
:0801360013FFEC13FC0203E9C6
:10013E00EC4D6011E8497017ED33EC3304600DE4BB
:10014E00FCFFFEFD22E933E8330470F802040712C7
:10015E0003D258046009E4CC2481500628500902C9
:10016E00041128400302040EC0E0EB4A7044B9802B
:10017E0006D0E0FB0203FDEF4E701CBD8008EBFFC6
:10018E00EAFEE9FD80EBE98DF0A4FEE5F002022720
:10019E00E9CDF9EAFEEBFFEF89F0A4FCE5F0CE899C
:1001AE00F0A42EFFE435F0CD89F0A42DFEE435F059
:1001BE008067EF4E7005BD80D780C3EF8BF0A4AC87
:1001CE00F0EE8BF0A42CFCE435F0F8EF8AF0A42CC2
:1001DE00E5F038FCE433CB8DF0A42CFCE5F03BF8D5
:1001EE00EE8AF0A42CFCE5F038F8E433CF89F0A4C5
:1001FE002CFCE5F038CF3400CE89F0A42FFFE5F0CB
:10020E003EFEE433C98DF0A42EFEE5F039CD8AF022
:10021E00A42FFFE5F03EFEE43DFD33D0E0FB50079A
:10022E000BBB000F020411EC2CFCEF33FFEE33FE80
:06023E00ED33FD0203E9AF
:10024400020411EC5D046005E8590470030204071C
:100254001203D2580460F6EC4860F2EC7004FDFE20
:10026400FF22C860DB2481C85009C398600250068D
:1002740002040E9850CAF582E9294B4A7005AB82F4
:100284000203FD75F0007C1A7880C3EF9BEE9AEDB3
:1002940099400DC3EF9BFFEE9AFEED99FDE842F005
:1002A400DC23ACF0D0E0FFD0E0FED0E0FDAB822058
:1002B400E7101BEB60BAEC2CFCEF33FFEE33FEEDE2
:1002C40033FD0203E9E803F830E705C0F075F000F8
:1002D400EF2FFFEE33FEED33FD40B830E7C280AAC6
:1002E40074F8CC6480CCC86480C8F58204604FC3C1
:1002F400EB9FF5F0EA9E42F0E99D42F0E89C45F060
:10030400603C501DE5825FFFE582D313CB5BCBF4E9
:100314002B5582FB50280ABA002409B90020088012
:100324001DE5825BFBE582D313CF5FCFF4C3132FAC
:100334005582FF50090EBE00050DBD00010CC3EB34
:100344009FF5F0EA9E42F0E99D42F0E89C45F0609A
:0903540007CC4820E701B3EC22BC
:10035D0075F020800E75F010800575F0087D007E1B
:10036D00007F003392D530D50312048DEC3340104D
:10037D00EF33FFEE33FEED33FDEC33FCD5F0ED2224
:0E038D00E5F0247EA2D513CC92E7CDCEFF2260
:10039B00EDD2E7CD33EC3392D524814006E4FFFE5A
:1003AB00FDFC22FCE4CFCECDCC24E0501174FF80B9
:1003BB00EDC3CC13CCCD13CDCE13CECF13CF047056
:0703CB00F030D5DE02048DC5
:1003D200E9D2E7C933E833F892D5EDD2E7CD33EC71
:0703E20033FC5002B2D522EA
:1003E900EC30E7100FBF000C0EBE00080DBD000475
:1003F9000BEB6014A2D5EB13FCED92E7FD2274FF21
:10040900FCFDFEFF22E480F8A2D574FF13FC7D8079
:03041900E480EF8D
:100802000204F0E493A3F8E493A34003F68001F218
:1008120008DFF48029E493A3F85407240CC8C333F7
:10082200C4540F4420C8834004F456800146F6DFC6
:10083200E4800B0102040810204080900AA3E47EA9
:10084200019360BCA3FF543F30E509541FFEE493BB
:10085200A360010ECF54C025E060A840B8E493A382
:10086200FAE493A3F8E493A3C8C582C8CAC583CAAD
:10087200F0A3C8C582C8CAC583CADFE9DEE780BE65
:010ACC000029
:10041C00BB010689828A83E0225002E722BBFE02DE
:09042C00E32289828A83E4932211
:10043500F8BB010DE58229F582E5833AF583E8F0FD
:10044500225006E92582C8F622BBFE05E92582C8A9
:02045500F22291
:10045700C2D5EC30E709B2D5E4C39DFDE49CFCEEC0
:1004670030E715B2D5E4C39FFFE49EFE12049BC399
:10047700E49DFDE49CFC800312049B30D507C3E494
:060487009FFFE49EFE222F
:0E048D00C3E49FFFE49EFEE49DFDE49CFC2280
:10049B00BC000BBE0029EF8DF084FFADF022E4CC45
:1004AB00F875F008EF2FFFEE33FEEC33FCEE9DEC0E
:1004BB00984005FCEE9DFE0FD5F0E9E4CEFD22ED54
:1004CB00F8F5F0EE8420D21CFEADF075F008EF2F9E
:1004DB00FFED33FD4007985006D5F0F222C398FD8F
:0504EB000FD5F0EA222C
:00000001FF
