:0300000002087F74
:0C087F00787FE4F6D8FD75814F0208C6B2
:0D0B8A00EFD3940040077E6EDEFE1F80F367
:010B9700223B
:100A24001200081200031200037F01120B8A7D01D9
:100A34007C007F3812000D7D017C007F0C12000DBC
:100A44007D017C007F0612000D7D017C007F010288
:020A5400000D93
:100B5A00758080C295D296D297E58020E7FB7F0008
:010B6A002268
:0A0003007F01120B8AE4FDFC7F3838
:10000D00AE07ED4C6003120B5A8E80C295C296C29C
:04001D0097D29722BD
:100B6B00AE07120B5A8E80D295C296C297D297229D
:10002600AE07ED6003430640430680AF067D017CC4
:090036000012000DAF03020B6B78
:080AB4008D4C8A4D8B4EA90701
:100ABC00E4FAE54E2AF582E4354DF583E493FB60C8
:100ACC0011E9D3940F50EBAF01AD4C1200260A097B
:020ADC0080E0B8
:010ADE0022F5
:100A56002030303A30303A30302052203030204F7B
:100A660000436F6E6E656374696E672E2E2E004EA0
:100A76003A00543D303020483D303020413D303042
:020A860030003E
:0C0B98007F167E037DE3DDFEDEFCDFFA4D
:010BA400222E
:100B0400120A247A0A7B56E4FDFF120AB47A0A7B9D
:080B1400677D01E4FF020AB451
:100B3200753301E533600D7F41120BA5120B98E569
:050B42003370F02222D7
:10069A007BFF7A0A7975120ADFA294E4332430FFC9
:1006AA00120BA57F3A120BA57F38120BA57F3A12BF
:1006BA000BA5E53775F00A842430FF120BA5E53740
:1006CA0075F00A84E5F02430FF120BA57F3A120B6D
:1006DA00A5E54475F00A842430FF120BA5E544759C
:1006EA00F00A84E5F02430FF120BA57F3A120BA51D
:1006FA00AF0BAE0AAD09AC0812039B7C007D6412F5
:10070A0004357C007D0A120435ED2430FF120BA556
:10071A00AF0BAE0AAD09AC0812039B7C007D0A122E
:10072A0004357C007D0A120435ED2430FF120BA536
:10073A00AF0BAE0AAD09AC0812039B7C007D0A120E
:09074A000435ED2430FF020BA57B
:1004CE00E4F54AF54B120B04D2A7D2A6D2A5D2A4BC
:1004DE00D2A3D2A2D294E4F5D8F5E9F5F9F5D975FF
:1004EE00FAA075EAA0F5F275DA42D2DE120B4712C7
:1004FE000B1C120B327B4EE4FD7F0F1200267A0A84
:10050E007B787D01E4FF120AB4E4F54AF54BAE4B5D
:10051E00EE04FF74182EF8E6FBE4FD120026054BE0
:10052E00E54B7002054AC39408E54A940040DF305B
:10053E0094047B5280027B53E4FD7F0A120026E571
:10054E0034C454F0F5FAF5EAE53475F00A84243033
:10055E00FBE4FD7F0C120026E53475F00A84E5F00D
:10056E002430FBE4FD7F0D12002612097EE537755F
:10057E00F00A842430FB7D017F02120026E53775D8
:10058E00F00A84E5F02430FB7D017F03120026E59E
:10059E004475F00A842430FB7D017F07120026E5A6
:1005AE004475F00A84E5F02430FB7D017F081200CB
:1005BE0026AF0BAE0AAD09AC0812039B7C007D641E
:1005CE001204357C007D0A120435ED2430FB7D01CA
:1005DE007F0C120026AF0BAE0AAD09AC0812039BBE
:1005EE007C007D0A1204357C007D0A120435ED2450
:1005FE0030FB7D017F0D120026AF0BAE0AAD09ACAC
:10060E000812039B7C007D0A120435ED2430FB7D1D
:10061E00017F0E120026E4FFFE7DC87C42AB0BAAC2
:10062E000AA909A8081202E460434041D294E4FBEF
:10063E00FA79207841AF0BAE0AAD09AC0812024729
:10064E00E4FBFA797078411202E460194017E4FB7A
:10065E00FA79207841AF0BAE0AAD09AC0812024709
:10066E0012039B80047E007F0F8F348019E4FFFEFF
:10067E007DA07C42AB0BAA0AA909A8081202E4507D
:0C068E0005C29475340A12069A02051782
:030BB100120BB470
:070BB4000000007F18DFFEC6
:010BBB002217
:0E0B7B0000007F017EC27D9FDDFEDEFCDFFA02
:010B89002249
:1009E400E4FE753F0220B307AF3F053FEF70F612F8
:1009F4000BB1120BB4E4F54330B303754301753FF7
:100A04000230B307AF3F053FEF70F6E53F64016086
:0F0A14000EE54925E0F549E54342490EBE08C30A
:010A230022B0
:10097E00C2B3120B7BD2B3120BB1D2B320B35675E6
:10098E003F0220B307AF3F053FEF70F6753F0230D1
:10099E00B307AF3F053FEF70F61209E485494612E3
:1009AE0009E48549471209E48549391209E4854964
:1009BE003A1209E4854942D2B3E539253A2546254E
:1009CE0047F543B5420F85464485474585393785FA
:0609DE003A388542402278
:100A880002350000080CAA0000000000FF00041452
:100A98000000000004080000000001340A023003CE
:0B0AA80020081830313A30303A30306E
:100B1C00758921758DFD758BFDD28ED29CC29FD2AD
:060B2C009ED2AFD2AC2204
:0C0BA500C2AC8F993099FDC299D2AC22ED
:100B4700538EF7759A50438E04759C70438E1075BB
:030B5700AF0122C9
:100ADF008B4C8A4D894EAB4CAA4DA94E12041C600B
:100AEF0013054EE54E7002054D14F912041CFF124A
:050AFF000BA580E222BE
:030023000207EBE6
:1007EB00C0E0C0F0C0D075D000C000C005C006C0CE
:0107FB0007F6
:1007FC00E4FE30986FC298E599B4470575330080D4
:10080C0063E599B449207532007E007F0074202F77
:10081C00F8E6FD74182FF8A6050FBF00010EEF6463
:10082C00084E70E9803EE599B44D04B2948035E5EC
:10083C0099B4550415348007E599B4441E0534E584
:10084C003475F00A842430FF120BA5E53475F00AD8
:10085C0084E5F02430FF120BA5800974202532F8B2
:04086C00A699053212
:0F087000D007D006D005D000D0D0D0F0D0E032E5
:0300430002090BA4
:10090B00C0E0C0F0C083C082C0D075D000C000C0B2
:10091B0001C002C003C004C005C006C007C2AFE5DA
:10092B009A30E032539AFE740C2536F8A69BE59B61
:10093B00B4FF0E7535007536001207537513FF8023
:10094B0015E59BB4AA087535007536018008053688
:10095B00E53670020535D2AFD007D006D005D004EE
:10096B00D003D002D001D000D0D0D082D083D0F031
:03097B00D0E03297
:10075300E4F54FE50D250EFFE433FE7C00EF250F96
:10076300FFEC3EFEEF2510FFEC3EFEE5116F70013E
:10077300EE7060AC0D120367E4FBFA7980784312E4
:10078300013EC004C005C006C007AC0EE4120367F7
:10079300D003D002D001D00012004DE4FBFA7980DF
:1007A3007844120247E4FBFA79A0784012013E8FA5
:1007B300178E168D158C14AC30AD31E4120362AB79
:1007C30017AA16A915A81412013E8F0B8E0A8D09BC
:1007D3008C0822E4F517F516F515F514F50B750AD3
:0707E300C075097975084497
:0107EA0022EC
:10004600020407E86480F8E933E83360110460F0DD
:10005600ED33EC337009E8FCE9FDEAFEEBFF220420
:1000660060DED3EB9FEA9EE99DE8C2E78CF0C2F71B
:1000760095F0400CE8CCF8E9CDF9EACEFAEBCFFBE7
:100086001203D285D0F05804700320D5B3E804706B
:10009600075002B2D502041192D5EC0460F7E4CC05
:1000A600C0E0C398F8603B94186008400DD0E0FBB0
:1000B6000203E9E4FBFAC9FC8028E830E406E4C957
:1000C600FBE4CAFCE830E305E4C9CACBFCE8540704
:1000D6006010F8C3E913F9EA13FAEB13FBEC13FC0F
:1000E600D8F130F52FC3E49CFCEF9BFFEE9AFEEDB2
:1000F60099FDD0E0FBEF4E4D4C701222DB0302045B
:100106000EEC2CFCEF33FFEE33FEED33FDED30E766
:10011600EB0203E9EF2BFFEE3AFEED39FDD0E0FBF3
:1001260050130BBB0003020411ED13FDEE13FEEF9B
:0801360013FFEC13FC0203E9C6
:10013E00EC4D6011E8497017ED33EC3304600DE4BB
:10014E00FCFFFEFD22E933E8330470F802040712C7
:10015E0003D258046009E4CC2481500628500902C9
:10016E00041128400302040EC0E0EB4A7044B9802B
:10017E0006D0E0FB0203FDEF4E701CBD8008EBFFC6
:10018E00EAFEE9FD80EBE98DF0A4FEE5F002022720
:10019E00E9CDF9EAFEEBFFEF89F0A4FCE5F0CE899C
:1001AE00F0A42EFFE435F0CD89F0A42DFEE435F059
:1001BE008067EF4E7005BD80D780C3EF8BF0A4AC87
:1001CE00F0EE8BF0A42CFCE435F0F8EF8AF0A42CC2
:1001DE00E5F038FCE433CB8DF0A42CFCE5F03BF8D5
:1001EE00EE8AF0A42CFCE5F038F8E433CF89F0A4C5
:1001FE002CFCE5F038CF3400CE89F0A42FFFE5F0CB
:10020E003EFEE433C98DF0A42EFEE5F039CD8AF022
:10021E00A42FFFE5F03EFEE43DFD33D0E0FB50079A
:10022E000BBB000F020411EC2CFCEF33FFEE33FE80
:06023E00ED33FD0203E9AF
:10024400020411EC5D046005E8590470030204071C
:100254001203D2580460F6EC4860F2EC7004FDFE20
:10026400FF22C860DB2481C85009C398600250068D
:1002740002040E9850CAF582E9294B4A7005AB82F4
:100284000203FD75F0007C1A7880C3EF9BEE9AEDB3
:1002940099400DC3EF9BFFEE9AFEED99FDE842F005
:1002A400DC23ACF0D0E0FFD0E0FED0E0FDAB822058
:1002B400E7101BEB60BAEC2CFCEF33FFEE33FEEDE2
:1002C40033FD0203E9E803F830E705C0F075F000F8
:1002D400EF2FFFEE33FEED33FD40B830E7C280AAC6
:1002E40074F8CC6480CCC86480C8F58204604FC3C1
:1002F400EB9FF5F0EA9E42F0E99D42F0E89C45F060
:10030400603C501DE5825FFFE582D313CB5BCBF4E9
:100314002B5582FB50280ABA002409B90020088012
:100324001DE5825BFBE582D313CF5FCFF4C3132FAC
:100334005582FF50090EBE00050DBD00010CC3EB34
:100344009FF5F0EA9E42F0E99D42F0E89C45F0609A
:0903540007CC4820E701B3EC22BC
:10035D0075F020800E75F010800575F0087D007E1B
:10036D00007F003392D530D50312046BEC3340106F
:10037D00EF33FFEE33FEED33FDEC33FCD5F0ED2224
:0E038D00E5F0247EA2D513CC92E7CDCEFF2260
:10039B00EDD2E7CD33EC3392D524814006E4FFFE5A
:1003AB00FDFC22FCE4CFCECDCC24E0501174FF80B9
:1003BB00EDC3CC13CCCD13CDCE13CECF13CF047056
:0703CB00F030D5DE02046BE7
:1003D200E9D2E7C933E833F892D5EDD2E7CD33EC71
:0703E20033FC5002B2D522EA
:1003E900EC30E7100FBF000C0EBE00080DBD000475
:1003F9000BEB6014A2D5EB13FCED92E7FD2274FF21
:10040900FCFDFEFF22E480F8A2D574FF13FC7D8079
:03041900E480EF8D
:10088B000204CEE493A3F8E493A34003F68001F2B1
:10089B0008DFF48029E493A3F85407240CC8C3336E
:1008AB00C4540F4420C8834004F456800146F6DF3D
:1008BB00E4800B0102040810204080900A88E47E3B
:1008CB00019360BCA3FF543F30E509541FFEE49332
:1008DB00A360010ECF54C025E060A840B8E493A3F9
:1008EB00FAE493A3F8E493A3C8C582C8CAC583CA24
:1008FB00F0A3C8C582C8CAC583CADFE9DEE780BEDC
:010AB3000042
:10041C00BB010689828A83E0225002E722BBFE02DE
:09042C00E32289828A83E4932211
:10043500C2D5EC30E709B2D5E4C39DFDE49CFCEEE2
:1004450030E715B2D5E4C39FFFE49EFE120479C3DD
:10045500E49DFDE49CFC800312047930D507C3E4D8
:060465009FFFE49EFE2251
:0E046B00C3E49FFFE49EFEE49DFDE49CFC22A2
:10047900BC000BBE0029EF8DF084FFADF022E4CC67
:10048900F875F008EF2FFFEE33FEEC33FCEE9DEC30
:10049900984005FCEE9DFE0FD5F0E9E4CEFD22ED76
:1004A900F8F5F0EE8420D21CFEADF075F008EF2FC0
:1004B900FFED33FD4007985006D5F0F222C398FDB1
:0504C9000FD5F0EA224E
:00000001FF
