:030000000205CD29
:0C05CD00787FE4F6D8FD75813602061434
:0D08BA00EFD3940040077E6EDEFE1F80F33A
:0108C700220E
:100772001207F91207F41207F47F011208BA7D0179
:100782007C007F381207FE7D017C007F0C1207FE81
:100792007D017C007F061207FE7D017C007F010245
:0207A20007FE50
:10088A00758080C295D296D297E58020E7FB7F00DB
:01089A00223B
:0A07F4007F011208BAE4FDFC7F3813
:1007FE00AE07ED4C600312088A8E80C295C296C277
:04080E0097D29722C4
:10089B00AE0712088A8E80D295C296C297D2972243
:10083000AE07ED6003430640430680AF067D017CB2
:09084000001207FEAF0302089B41
:0807A4008D308A318B32A90768
:1007AC00E4FAE5322AF582E43531F583E493FB6013
:1007BC0011E9D3940F50EBAF01AD301208300A0998
:0207CC0080E0CB
:0107CE002208
:100812005354415455533A4E4F524D414C00543D5E
:0E082200303020483D303020413D3130300034
:100849001207727A087B12E4FDFF1207A47A087B6B
:08085900207D01E4FF0207A469
:10045500E4F52EF52F120849D2A7D2A6D2A5D2A42B
:10046500D2A3D2A2D294E4F5D8F5E9F5F9F5D97578
:10047500FAA075EAA0F5F275DA42D2DE1208771213
:1004850008611206CCE50875F00A842430FB7D016D
:100495007F02120830E50875F00A84E5F02430FB88
:1004A5007D017F03120830E51575F00A842430FBC1
:1004B5007D017F07120830E51575F00A84E5F02403
:1004C50030FB7D017F08120830AF1FAE1EAD1DAC9D
:1004D5001C1203227C007D641203BC7C007D0A1281
:1004E50003BCED2430FB7D017F0C120830AF1FAE3D
:1004F5001EAD1DAC1C1203227C007D0A1203BC7CC0
:10050500007D0A1203BCED2430FB7D017F0D12082E
:1005150030AF1FAE1EAD1DAC1C1203227C007D0A40
:100525001203BCED2430FB7D017F0E12083002045E
:01053500873E
:0308D4001208D730
:0708D7000000007F18DFFEA6
:0108DE0022F7
:0E08AB0000007F017EC27D9FDDFEDEFCDFFAD5
:0108B900221C
:10073200E4FE75100220B307AF100510EF70F61239
:1007420008D41208D7E4F51430B3037514017510F8
:100752000230B307AF100510EF70F6E510640160C8
:0F0762000EE51A25E0F51AE514421A0EBE08C37B
:010771002265
:1006CC00C2B31208ABD2B31208D4D2B320B356754E
:1006DC00100220B307AF100510EF70F67510023042
:1006EC00B307AF100510EF70F6120732851A171208
:1006FC000732851A18120732851A0A120732851A20
:10070C000B120732851A13D2B3E50A250B251725D0
:10071C0018F514B5130F851715851816850A088555
:06072C000B0985131122E8
:10002600022C00000820AA0000000000FF0004289F
:0A00360000000000041C00000000A0
:10086100758921758DFD758BFDD28ED29CC29FD26B
:060871009ED2AFD2AC22C2
:0C08C800C2AC8F993099FDC299D2AC22CD
:10087700538EF7759A50438E04759C70438E10758E
:03088700AF01229C
:1007CF008B348A358936AB34AA35A9361203A36028
:1007DF00130536E5367002053514F91203A3FF121F
:0507EF0008C880E222B1
:03002300020003D5
:0B000300C0E0C0D075D000C006C007F0
:0C000E00E4FE309807C298AF991208C8B1
:09001A00D007D006D0D0D0E032AE
:0300430002065959
:10065900C0E0C0F0C083C082C0D075D000C000C067
:1006690001C002C003C004C005C006C007C2AFE58F
:100679009A30E032539AFE7420252DF8A69BE59B0B
:10068900B4FF0E752C00752D001205367527FF80F5
:1006990015E59BB4AA08752C00752D018008052D58
:1006A900E52D7002052CD2AFD007D006D005D004B5
:1006B900D003D002D001D000D0D0D082D083D0F0E6
:0306C900D0E0324C
:10053600E4F533E5212522FFE433FE7C00EF252395
:10054600FFEC3EFEEF2524FFEC3EFEE5256F700135
:10055600EE705FAC211202EEE4FBFA79807843126A
:10056600013EC004C005C006C007AC22E41202EE7C
:10057600D003D002D001D00012004DE4FBFA7980FE
:100586007844120247E4FBFA79A0784012013E8FC4
:100596002B8E2A8D298C28E4FFFE7D487C44AB2BCC
:1005A600AA2AA929A82812013E8F1F8E1E8D1D8CEE
:1005B6001C22E4F52BF52AF529F528F51F751EC032
:0605C600751D79751C444F
:0105CC00220C
:1000460002038EE86480F8E933E83360110460F057
:10005600ED33EC337009E8FCE9FDEAFEEBFF220420
:1000660060DED3EB9FEA9EE99DE8C2E78CF0C2F71B
:1000760095F0400CE8CCF8E9CDF9EACEFAEBCFFBE7
:1000860012035985D0F05804700320D5B3E80470E4
:10009600075002B2D502039892D5EC0460F7E4CC7F
:1000A600C0E0C398F8603B94186008400DD0E0FBB0
:1000B600020370E4FBFAC9FC8028E830E406E4C9D0
:1000C600FBE4CAFCE830E305E4C9CACBFCE8540704
:1000D6006010F8C3E913F9EA13FAEB13FBEC13FC0F
:1000E600D8F130F52FC3E49CFCEF9BFFEE9AFEEDB2
:1000F60099FDD0E0FBEF4E4D4C701222DB0302035C
:1001060095EC2CFCEF33FFEE33FEED33FDED30E7DF
:10011600EB020370EF2BFFEE3AFEED39FDD0E0FB6C
:1001260050130BBB0003020398ED13FDEE13FEEF15
:0801360013FFEC13FC0203703F
:10013E00EC4D6011E8497017ED33EC3304600DE4BB
:10014E00FCFFFEFD22E933E8330470F802038E1241
:10015E00035958046009E4CC248150062850090242
:10016E000398284003020395C0E0EB4A7044B9801F
:10017E0006D0E0FB020384EF4E701CBD8008EBFF3F
:10018E00EAFEE9FD80EBE98DF0A4FEE5F002022720
:10019E00E9CDF9EAFEEBFFEF89F0A4FCE5F0CE899C
:1001AE00F0A42EFFE435F0CD89F0A42DFEE435F059
:1001BE008067EF4E7005BD80D780C3EF8BF0A4AC87
:1001CE00F0EE8BF0A42CFCE435F0F8EF8AF0A42CC2
:1001DE00E5F038FCE433CB8DF0A42CFCE5F03BF8D5
:1001EE00EE8AF0A42CFCE5F038F8E433CF89F0A4C5
:1001FE002CFCE5F038CF3400CE89F0A42FFFE5F0CB
:10020E003EFEE433C98DF0A42EFEE5F039CD8AF022
:10021E00A42FFFE5F03EFEE43DFD33D0E0FB50079A
:10022E000BBB000F020398EC2CFCEF33FFEE33FEFA
:06023E00ED33FD02037028
:10024400020398EC5D046005E85904700302038E10
:10025400120359580460F6EC4860F2EC7004FDFE99
:10026400FF22C860DB2481C85009C398600250068D
:100274000203959850CAF582E9294B4A7005AB826E
:1002840002038475F0007C1A7880C3EF9BEE9AED2C
:1002940099400DC3EF9BFFEE9AFEED99FDE842F005
:1002A400DC23ACF0D0E0FFD0E0FED0E0FDAB822058
:1002B400E7101BEB60BAEC2CFCEF33FFEE33FEEDE2
:1002C40033FD020370E803F830E705C0F075F00071
:1002D400EF2FFFEE33FEED33FD40B830E7C280AAC6
:1002E40075F020800E75F010800575F0087D007E95
:1002F400007F003392D530D5031203F2EC33401063
:10030400EF33FFEE33FEED33FDEC33FCD5F0ED229D
:0E031400E5F0247EA2D513CC92E7CDCEFF22D9
:10032200EDD2E7CD33EC3392D524814006E4FFFED3
:10033200FDFC22FCE4CFCECDCC24E0501174FF8032
:10034200EDC3CC13CCCD13CDCE13CECF13CF0470CF
:07035200F030D5DE0203F2DA
:10035900E9D2E7C933E833F892D5EDD2E7CD33ECEA
:0703690033FC5002B2D52263
:10037000EC30E7100FBF000C0EBE00080DBD0004EE
:100380000BEB6014A2D5EB13FCED92E7FD2274FF9A
:10039000FCFDFEFF22E480F8A2D574FF13FC7D80F3
:0303A000E480EF07
:1005D900020455E493A3F8E493A34003F68001F2DF
:1005E90008DFF48029E493A3F85407240CC8C33323
:1005F900C4540F4420C8834004F456800146F6DFF2
:10060900E4800B0102040810204080900026E47E5B
:10061900019360BCA3FF543F30E509541FFEE493E6
:10062900A360010ECF54C025E060A840B8E493A3AD
:10063900FAE493A3F8E493A3C8C582C8CAC583CAD8
:10064900F0A3C8C582C8CAC583CADFE9DEE780BE90
:0100400000BF
:1003A300BB010689828A83E0225002E722BBFE0258
:0903B300E32289828A83E493228B
:1003BC00C2D5EC30E709B2D5E4C39DFDE49CFCEE5C
:1003CC0030E715B2D5E4C39FFFE49EFE120400C3D0
:1003DC00E49DFDE49CFC800312040030D507C3E4CB
:0603EC009FFFE49EFE22CB
:0E03F200C3E49FFFE49EFEE49DFDE49CFC221C
:10040000BC000BBE0029EF8DF084FFADF022E4CCE0
:10041000F875F008EF2FFFEE33FEEC33FCEE9DECA9
:10042000984005FCEE9DFE0FD5F0E9E4CEFD22EDEF
:10043000F8F5F0EE8420D21CFEADF075F008EF2F39
:10044000FFED33FD4007985006D5F0F222C398FD2A
:050450000FD5F0EA22C7
:00000001FF
