:0300000002092AC8
:0C092A00787FE4F6D8FD75815102097158
:0D0D5100EFD3940040077E6EDEFE1F80F39E
:010D5E002272
:100BEA00120CA3120C9E120C9E7F01120D517D0154
:100BFA007C007F38120CA87D017C007F0C120CA8A7
:100C0A007D017C007F06120CA87D017C007F010219
:020C1A000CA824
:100D1200758080C295D296D297E58020E7FB7F004E
:010D220022AE
:0A0C9E007F01120D51E4FDFC7F38C8
:100CA800AE07ED4C6003120D128E80C295C296C23B
:040CB80097D2972216
:100D2300AE07120D128E80D295C296C297D2972229
:10002600AE07ED6003430640430680AF067D017CC4
:0900360000120CA8AF03020D2317
:080C4E008D4D8A4E8B4FA90762
:100C5600E4FAE54F2AF582E4354EF583E493FB602A
:100C660011E9D3940F50EBAF01AD4D1200260A09DE
:020C760080E01C
:010C78002259
:100B670020545553545F5341432042593A47464412
:100B770000436F6E6E656374696E672E2E2E004E8E
:100B87003A002030303A30303A303020522030307E
:100B9700204E00543D303020483D303020413D301C
:030BA700303000EB
:030C1C0001510083
:0E0D330000007F017ED87D23DDFEDEFCDFFAAE
:010D4100228F
:0C0D5F007F167E037DE3DDFEDEFCDFFA84
:010D6B002265
:100CBC00120BEA7A0B7B67E4FDFF120C4E7A0B7B6E
:080CCC00787D01E4FF020C4EEB
:100CEA00753401E534600D7F41120D6C120D5FE51C
:050CFA003470F022221D
:040A2900AF357E0067
:100A2D00EF64014E7004FE7F0D22EF64024E7004E0
:100A3D00FE7F0C22EF64034E7004FE7F0B22EF64E9
:100A4D00044E7004FE7F0A22EF64054E7004FE7F93
:100A5D000922EF64064E7004FE7F0822EF64074EF4
:100A6D007004FE7F0722EF64084E7004FE7F06229D
:100A7D00EF64094E7004FE7F0522EF640A4E700488
:090A8D00FE7F04227E007F03229B
:1006EB007BFF7A0B7986120C79A294E4332430FFCA
:1006FB00120D6C7F3A120D6CE5322430FF120D6C2B
:10070B007F3A120D6C120A297C007D0A120435EF18
:10071B002430FF120D6C120A297C007D0A1204355D
:10072B00ED2430FF120D6C7F3A120D6CE53875F02D
:10073B000A842430FF120D6CE53875F00A84E5F05D
:10074B002430FF120D6C7F3A120D6CE54575F00AE3
:10075B00842430FF120D6CE54575F00A84E5F02416
:10076B0030FF120D6C7F3A120D6CAF0BAE0AAD0958
:10077B00AC0812039B7C007D641204357C007D0A5F
:10078B00120435ED2430FF120D6CAF0BAE0AAD0920
:10079B00AC0812039B7C007D0A1204357C007D0A99
:1007AB00120435ED2430FF120D6CAF0BAE0AAD0900
:1007BB00AC0812039B7C007D0A120435ED2430FF3C
:0307CB00020D6CB0
:100A960030A51B120D3330A515E532600BE535D3B5
:100AA600940340071535800343C72030A5FD30A4C5
:100AB60012120D3330A40CE535C3940F50020535E0
:100AC60030A4FD30A31C120D3330A316E5326004AA
:100AD600B294800BC2A77F207E03120003D2A730F8
:100AE600A3FD30A215120D3330A20FE53270047F3C
:0B0AF6000180027F008F3230A2FD2241
:1004CE00E4F54BF54C120CBCD2A7D2A6C2A5C2A421
:1004DE00C2A3C2A2C294E4F5D8F5E9F5F9F5D9752F
:1004EE00FAA075EAA0F5F275DA42D2DE120CFF120E
:1004FE000CD4120CEAD2907A0B7B89E4FDFF120C1D
:10050E004E7A0B7B9A7D01E4FF120C4EC2A6120AA4
:10051E0096E535D3940F4005753503800AE535C34E
:10052E009403500375350FE4F54BF54CAE4CEE04C9
:10053E00FF74182EF8E6FBE4FD120026054CE54C80
:10054E007002054BC39408E54B940040DF309404D1
:10055E007B5280027B53E4FD7F0A120026E535C4F0
:10056E0054F0F5FAF5EA120A297C007D0A120435D8
:10057E00EF2430FBE4FD7F0C120026120A297C00CA
:10058E007D0A120435ED2430FBE4FD7F0D120026AA
:10059E00120B01E53875F00A842430FB7D017F02D1
:1005AE00120026E53875F00A84E5F02430FB7D0153
:1005BE007F03120026E54575F00A842430FB7D0189
:1005CE007F07120026E54575F00A84E5F02430FB1E
:1005DE007D017F08120026AF0BAE0AAD09AC0812E2
:1005EE00039B7C007D641204357C007D0A12043569
:1005FE00ED2430FB7D017F0C120026AF0BAE0AAD51
:10060E0009AC0812039B7C007D0A1204357C007D28
:10061E000A120435ED2430FB7D017F0D120026AF4A
:10062E000BAE0AAD09AC0812039B7C007D0A1204C6
:10063E0035ED2430FB7D017F0E120026E53260037E
:10064E000206DCFFFE7DC87C42AB0BAA0AA909A8F4
:10065E00081202E460544052D294E4FBFA792078F6
:10066E0041AF0BAE0AAD09AC08120247E4FBFA79B2
:10067E007078411202E4601C401AE4FBFA7920788B
:10068E0041AF0BAE0AAD09AC0812024712039B1222
:10069E000A2D80027F038F35C2A7E55170077F2098
:1006AE007E031200037551018020E4FFFE7DA07CC5
:1006BE0042AB0BAA0AA909A8081202E45007C29479
:1006CE0075350A8000D2A7E4F5517B4E80027B4D32
:0D06DE00E4FD7F0F1200261206EB02051C42
:030D7800120D7BDE
:070D7B000000007F18DFFEFD
:010D8200224E
:0E0D420000007F017EC27D9FDDFEDEFCDFFA39
:010D50002280
:100BAA00E4FE75400220B307AF400540EF70F6122D
:100BBA000D78120D7BE4F54430B30375440175409A
:100BCA000230B307AF400540EF70F6E540640160BC
:0F0BDA000EE54A25E0F54AE544424A0EBE08C33F
:010BE90022E9
:100B0100C2B3120D42D2B3120D78D2B320B35675CF
:100B1100400220B307AF400540EF70F67540023048
:100B2100B307AF400540EF70F6120BAA854A471292
:100B31000BAA854A48120BAA854A3A120BAA854A82
:100B41003B120BAA854A43D2B3E53A253B254725FB
:100B510048F544B5430F854745854846853A38856C
:060B61003B3985434122EF
:100C1F0001320002360000080CAA0000000000FF9D
:100C2F000004140000000004080000000001350A51
:0E0C3F0002300320081830313A30303A30309D
:0A0D830000007F167E80DEFEDFFC1C
:010D8D002243
:04000300AD07AC0693
:10000700E4FBFAC3EB9DEA9C5011C290120D83D218
:0B00170090120D830BBB00010A80E873
:0100220022BB
:100CD400758921758DFD758BFDD28ED29CC29FD2F4
:060CE4009ED2AFD2AC224B
:0C0D6C00C2AC8F993099FDC299D2AC2224
:100CFF00538EF7759A50438E04759C70438E107502
:030D0F00AF01220F
:100C79008B4D8A4E894FAB4DAA4EA94F12041C6069
:100C890013054FE54F7002054E14F912041CFF12AB
:050C99000D6C80E22259
:030023000207CE03
:1007CE00C0E0C0D075D000C000C002C003C004C0DD
:0507DE0005C006C00784
:1007E30020980302087FC298E599B447097534003D
:1007F30075330002087FE599B449207533007E0004
:100803007F0074202FF8E6FD74182FF8A6050FBF9C
:1008130000010EEF64084E70E98061E599B4540D50
:10082300C2A77F207E03120003D2A7804FE599B4AD
:10083300520543C7208045E599B44D0EE532700457
:100843007F0180027F008F328032E599B44304B286
:10085300948029E599B4550BE535D39403401D15D0
:10086300358019E599B4440BE535C3940F500D0554
:0C08730035800974202533F8A699053360
:10087F00D007D006D005D004D003D002D000D0D0FE
:03088F00D0E03284
:030043000209B6F9
:1009B600C0E0C0F0C083C082C0D075D000C000C007
:1009C60001C002C003C004C005C006C007C2AFE52F
:1009D6009A30E032539AFE740C2537F8A69BE59BB5
:1009E600B4FF0E7536007537001208927513FF8036
:1009F60015E59BB4AA0875360075370180080537DA
:100A0600E53770020536D2AFD007D006D005D00440
:100A1600D003D002D001D000D0D0D082D083D0F085
:030A2600D0E032EB
:10089200E4F550E50D250EFFE433FE7C00EF250F55
:1008A200FFEC3EFEEF2510FFEC3EFEE5116F7001FE
:1008B200EE7060AC0D120367E4FBFA7980784312A4
:1008C200013EC004C005C006C007AC0EE4120367B7
:1008D200D003D002D001D00012004DE4FBFA79809F
:1008E2007844120247E4FBFA79A0784012013E8F65
:1008F200178E168D158C14AC30AD31E4120362AB39
:1009020017AA16A915A81412013E8F0B8E0A8D097B
:100912008C0822E4F517F516F515F514F50B750A92
:07092200C075097975084456
:0109290022AB
:10004600020407E86480F8E933E83360110460F0DD
:10005600ED33EC337009E8FCE9FDEAFEEBFF220420
:1000660060DED3EB9FEA9EE99DE8C2E78CF0C2F71B
:1000760095F0400CE8CCF8E9CDF9EACEFAEBCFFBE7
:100086001203D285D0F05804700320D5B3E804706B
:10009600075002B2D502041192D5EC0460F7E4CC05
:1000A600C0E0C398F8603B94186008400DD0E0FBB0
:1000B6000203E9E4FBFAC9FC8028E830E406E4C957
:1000C600FBE4CAFCE830E305E4C9CACBFCE8540704
:1000D6006010F8C3E913F9EA13FAEB13FBEC13FC0F
:1000E600D8F130F52FC3E49CFCEF9BFFEE9AFEEDB2
:1000F60099FDD0E0FBEF4E4D4C701222DB0302045B
:100106000EEC2CFCEF33FFEE33FEED33FDED30E766
:10011600EB0203E9EF2BFFEE3AFEED39FDD0E0FBF3
:1001260050130BBB0003020411ED13FDEE13FEEF9B
:0801360013FFEC13FC0203E9C6
:10013E00EC4D6011E8497017ED33EC3304600DE4BB
:10014E00FCFFFEFD22E933E8330470F802040712C7
:10015E0003D258046009E4CC2481500628500902C9
:10016E00041128400302040EC0E0EB4A7044B9802B
:10017E0006D0E0FB0203FDEF4E701CBD8008EBFFC6
:10018E00EAFEE9FD80EBE98DF0A4FEE5F002022720
:10019E00E9CDF9EAFEEBFFEF89F0A4FCE5F0CE899C
:1001AE00F0A42EFFE435F0CD89F0A42DFEE435F059
:1001BE008067EF4E7005BD80D780C3EF8BF0A4AC87
:1001CE00F0EE8BF0A42CFCE435F0F8EF8AF0A42CC2
:1001DE00E5F038FCE433CB8DF0A42CFCE5F03BF8D5
:1001EE00EE8AF0A42CFCE5F038F8E433CF89F0A4C5
:1001FE002CFCE5F038CF3400CE89F0A42FFFE5F0CB
:10020E003EFEE433C98DF0A42EFEE5F039CD8AF022
:10021E00A42FFFE5F03EFEE43DFD33D0E0FB50079A
:10022E000BBB000F020411EC2CFCEF33FFEE33FE80
:06023E00ED33FD0203E9AF
:10024400020411EC5D046005E8590470030204071C
:100254001203D2580460F6EC4860F2EC7004FDFE20
:10026400FF22C860DB2481C85009C398600250068D
:1002740002040E9850CAF582E9294B4A7005AB82F4
:100284000203FD75F0007C1A7880C3EF9BEE9AEDB3
:1002940099400DC3EF9BFFEE9AFEED99FDE842F005
:1002A400DC23ACF0D0E0FFD0E0FED0E0FDAB822058
:1002B400E7101BEB60BAEC2CFCEF33FFEE33FEEDE2
:1002C40033FD0203E9E803F830E705C0F075F000F8
:1002D400EF2FFFEE33FEED33FD40B830E7C280AAC6
:1002E40074F8CC6480CCC86480C8F58204604FC3C1
:1002F400EB9FF5F0EA9E42F0E99D42F0E89C45F060
:10030400603C501DE5825FFFE582D313CB5BCBF4E9
:100314002B5582FB50280ABA002409B90020088012
:100324001DE5825BFBE582D313CF5FCFF4C3132FAC
:100334005582FF50090EBE00050DBD00010CC3EB34
:100344009FF5F0EA9E42F0E99D42F0E89C45F0609A
:0903540007CC4820E701B3EC22BC
:10035D0075F020800E75F010800575F0087D007E1B
:10036D00007F003392D530D50312046BEC3340106F
:10037D00EF33FFEE33FEED33FDEC33FCD5F0ED2224
:0E038D00E5F0247EA2D513CC92E7CDCEFF2260
:10039B00EDD2E7CD33EC3392D524814006E4FFFE5A
:1003AB00FDFC22FCE4CFCECDCC24E0501174FF80B9
:1003BB00EDC3CC13CCCD13CDCE13CECF13CF047056
:0703CB00F030D5DE02046BE7
:1003D200E9D2E7C933E833F892D5EDD2E7CD33EC71
:0703E20033FC5002B2D522EA
:1003E900EC30E7100FBF000C0EBE00080DBD000475
:1003F9000BEB6014A2D5EB13FCED92E7FD2274FF21
:10040900FCFDFEFF22E480F8A2D574FF13FC7D8079
:03041900E480EF8D
:100936000204CEE493A3F8E493A34003F68001F205
:1009460008DFF48029E493A3F85407240CC8C333C2
:10095600C4540F4420C8834004F456800146F6DF91
:10096600E4800B0102040810204080900C1CE47EF9
:10097600019360BCA3FF543F30E509541FFEE49386
:10098600A360010ECF54C025E060A840B8E493A34D
:10099600FAE493A3F8E493A3C8C582C8CAC583CA78
:1009A600F0A3C8C582C8CAC583CADFE9DEE780BE30
:010C4D0000A6
:10041C00BB010689828A83E0225002E722BBFE02DE
:09042C00E32289828A83E4932211
:10043500C2D5EC30E709B2D5E4C39DFDE49CFCEEE2
:1004450030E715B2D5E4C39FFFE49EFE120479C3DD
:10045500E49DFDE49CFC800312047930D507C3E4D8
:060465009FFFE49EFE2251
:0E046B00C3E49FFFE49EFEE49DFDE49CFC22A2
:10047900BC000BBE0029EF8DF084FFADF022E4CC67
:10048900F875F008EF2FFFEE33FEEC33FCEE9DEC30
:10049900984005FCEE9DFE0FD5F0E9E4CEFD22ED76
:1004A900F8F5F0EE8420D21CFEADF075F008EF2FC0
:1004B900FFED33FD4007985006D5F0F222C398FDB1
:0504C9000FD5F0EA224E
:00000001FF
