:0300000002069E57
:0C069E00787FE4F6D8FD7581350206E592
:0D09EE00EFD3940040077E6EDEFE1F80F305
:0109FB0022D9
:1008C9001200081200031200037F011209EE7D01D4
:1008D9007C007F3812000D7D017C007F0C12000D19
:1008E9007D017C007F0612000D7D017C007F0102E5
:0208F900000DF0
:1009BE00758080C295D296D297E58020E7FB7F00A6
:0109CE002206
:0A0003007F011209EEE4FDFC7F38D6
:10000D00AE07ED4C60031209BE8E80C295C296C23A
:04001D0097D29722BD
:1009CF00AE071209BE8E80D295C296C297D29722D9
:10094B00AE07ED6003430640430680AF067D017C96
:09095B000012000DAF030209CFE8
:0808FB008D308A318B32A90710
:10090300E4FAE5322AF582E43531F583E493FB60BA
:1009130011E9D3940F50EBAF01AD3012094B0A0923
:0209230080E072
:0109250022AF
:100848005354415455533A4F46464C494E4500433C
:100858006F6E6E656374696E672E2E2E00415400AC
:100868005354415455533A4E4F524D414C00543D08
:10087800303020483D303020413D303030004E3A55
:01088800006F
:0C09FC007F167E037DE3DDFEDEFCDFFAEB
:010A080022CB
:10097D001208C97A087B48E4FDFF1208FB7A087B50
:08098D00577D01E4FF0208FBA5
:10096400752B01E52B60117BFF7A08796512092646
:090974001209FCE52B70EC2222B3
:10045500E4F52EF52F12097DD2A7D2A6D2A5D2A4F6
:10046500D2A3D2A2D294E4F5D8F5E9F5F9F5D97578
:10047500FAA075EAA0F5F275DA42D2DE1209AB12DE
:1004850009951209647A087B68E4FDFF1208FB7A76
:10049500087B767D01E4FF1208FB12079DE50875D0
:1004A500F00A842430FB7D017F0212094BE50875B3
:1004B500F00A84E5F02430FB7D017F0312094BE54A
:1004C5001575F00A842430FB7D017F0712094BE581
:1004D5001575F00A84E5F02430FB7D017F081209CB
:1004E5004BAF1EAE1DAD1CAC1B1203227C007D6400
:1004F5001203BC7C007D0A1203BCED2430FB7D0198
:100505007F0C12094BAF1EAE1DAD1CAC1B12032296
:100515007C007D0A1203BC7C007D0A1203BCED241D
:1005250030FB7D017F0D12094BAF1EAE1DAD1CAC1E
:100535001B1203227C007D0A1203BCED2430FB7DD7
:10054500017F0E12094B7BFF7A087986120926A2D4
:1005550094E4332430FF120A097F3A120A097F38DE
:10056500120A097F3A120A09E50875F00A8424304F
:10057500FF120A09E50875F00A84E5F02430FF1238
:100585000A097F3A120A09E51575F00A842430FF35
:10059500120A09E51575F00A84E5F02430FF120A00
:1005A500097F3A120A09AF1EAE1DAD1CAC1B120322
:1005B500227C007D641203BC7C007D0A1203BCED25
:1005C5002430FF120A09AF1EAE1DAD1CAC1B120371
:1005D500227C007D0A1203BC7C007D0A1203BCED5F
:1005E5002430FF120A09AF1EAE1DAD1CAC1B120351
:1005F500227C007D0A1203BCED2430FF120A090299
:02060500049F50
:030A1500120A18AA
:070A18000000007F18DFFE63
:010A1F0022B4
:0E09DF0000007F017EC27D9FDDFEDEFCDFFAA0
:0109ED0022E7
:10088900E4FE75100220B307AF100510EF70F612E1
:100899000A15120A18E4F51430B30375140175101A
:1008A9000230B307AF100510EF70F6E51064016070
:0F08B9000EE51A25E0F51AE514421A0EBE08C323
:0108C800220D
:10079D00C2B31209DFD2B3120A15D2B320B3567504
:1007AD00100220B307AF100510EF70F67510023070
:1007BD00B307AF100510EF70F6120889851A1712DE
:1007CD000889851A18120889851A0A120889851A46
:1007DD000B120889851A13D2B3E50A250B251725A7
:1007ED0018F514B5130F851715851816850A088584
:0607FD000B098513112217
:10002600022C0000081FAA0000000000FF000427A1
:0A00360000000000041B00000000A1
:10099500758921758DFD758BFDD28ED29CC29FD236
:0609A5009ED2AFD2AC228D
:0C0A0900C2AC8F993099FDC299D2AC228A
:1009AB00538EF7759A50438E04759C70438E107559
:0309BB00AF012267
:100926008B308A318932AB30AA31A9321203A360E7
:10093600130532E5327002053114F91203A3FF12D2
:050946000A0980E22215
:03002300020803CD
:04080300C0E0C0D0C1
:10080700753300753400309833C298E599B44703BF
:10081700752B00E599B44D02B294E599B4550C7463
:100827001025FAF5FA741025EAF5EAE599B4440CAF
:0C08370074F025FAF5FA74F025EAF5EAF1
:05084300D0D0D0E0322E
:0300430002072A87
:10072A00C0E0C0F0C083C082C0D075D000C000C095
:10073A0001C002C003C004C005C006C007C2AFE5BD
:10074A009A30E032539AFE741F252DF8A69BE59B3A
:10075A00B4FF0E752C00752D001206077526FF8052
:10076A0015E59BB4AA08752C00752D018008052D86
:10077A00E52D7002052CD2AFD007D006D005D004E3
:10078A00D003D002D001D000D0D0D082D083D0F014
:03079A00D0E0327A
:10060700E4F535E5202521FFE433FE7C00EF2522C4
:10061700FFEC3EFEEF2523FFEC3EFEE5246F700165
:10062700EE705FAC201202EEE4FBFA798078431299
:10063700013EC004C005C006C007AC21E41202EEAB
:10064700D003D002D001D00012004DE4FBFA79802C
:100657007844120247E4FBFA79A0784012013E8FF2
:100667002A8E298D288C27E4FFFE7D487C44AB2AFF
:10067700AA29A928A82712013E8F1E8E1D8D1C8C22
:100687001B22E4F52AF529F528F527F51E751DC067
:06069700751C79751B447F
:01069D00223A
:1000460002038EE86480F8E933E83360110460F057
:10005600ED33EC337009E8FCE9FDEAFEEBFF220420
:1000660060DED3EB9FEA9EE99DE8C2E78CF0C2F71B
:1000760095F0400CE8CCF8E9CDF9EACEFAEBCFFBE7
:1000860012035985D0F05804700320D5B3E80470E4
:10009600075002B2D502039892D5EC0460F7E4CC7F
:1000A600C0E0C398F8603B94186008400DD0E0FBB0
:1000B600020370E4FBFAC9FC8028E830E406E4C9D0
:1000C600FBE4CAFCE830E305E4C9CACBFCE8540704
:1000D6006010F8C3E913F9EA13FAEB13FBEC13FC0F
:1000E600D8F130F52FC3E49CFCEF9BFFEE9AFEEDB2
:1000F60099FDD0E0FBEF4E4D4C701222DB0302035C
:1001060095EC2CFCEF33FFEE33FEED33FDED30E7DF
:10011600EB020370EF2BFFEE3AFEED39FDD0E0FB6C
:1001260050130BBB0003020398ED13FDEE13FEEF15
:0801360013FFEC13FC0203703F
:10013E00EC4D6011E8497017ED33EC3304600DE4BB
:10014E00FCFFFEFD22E933E8330470F802038E1241
:10015E00035958046009E4CC248150062850090242
:10016E000398284003020395C0E0EB4A7044B9801F
:10017E0006D0E0FB020384EF4E701CBD8008EBFF3F
:10018E00EAFEE9FD80EBE98DF0A4FEE5F002022720
:10019E00E9CDF9EAFEEBFFEF89F0A4FCE5F0CE899C
:1001AE00F0A42EFFE435F0CD89F0A42DFEE435F059
:1001BE008067EF4E7005BD80D780C3EF8BF0A4AC87
:1001CE00F0EE8BF0A42CFCE435F0F8EF8AF0A42CC2
:1001DE00E5F038FCE433CB8DF0A42CFCE5F03BF8D5
:1001EE00EE8AF0A42CFCE5F038F8E433CF89F0A4C5
:1001FE002CFCE5F038CF3400CE89F0A42FFFE5F0CB
:10020E003EFEE433C98DF0A42EFEE5F039CD8AF022
:10021E00A42FFFE5F03EFEE43DFD33D0E0FB50079A
:10022E000BBB000F020398EC2CFCEF33FFEE33FEFA
:06023E00ED33FD02037028
:10024400020398EC5D046005E85904700302038E10
:10025400120359580460F6EC4860F2EC7004FDFE99
:10026400FF22C860DB2481C85009C398600250068D
:100274000203959850CAF582E9294B4A7005AB826E
:1002840002038475F0007C1A7880C3EF9BEE9AED2C
:1002940099400DC3EF9BFFEE9AFEED99FDE842F005
:1002A400DC23ACF0D0E0FFD0E0FED0E0FDAB822058
:1002B400E7101BEB60BAEC2CFCEF33FFEE33FEEDE2
:1002C40033FD020370E803F830E705C0F075F00071
:1002D400EF2FFFEE33FEED33FD40B830E7C280AAC6
:1002E40075F020800E75F010800575F0087D007E95
:1002F400007F003392D530D5031203F2EC33401063
:10030400EF33FFEE33FEED33FDEC33FCD5F0ED229D
:0E031400E5F0247EA2D513CC92E7CDCEFF22D9
:10032200EDD2E7CD33EC3392D524814006E4FFFED3
:10033200FDFC22FCE4CFCECDCC24E0501174FF8032
:10034200EDC3CC13CCCD13CDCE13CECF13CF0470CF
:07035200F030D5DE0203F2DA
:10035900E9D2E7C933E833F892D5EDD2E7CD33ECEA
:0703690033FC5002B2D52263
:10037000EC30E7100FBF000C0EBE00080DBD0004EE
:100380000BEB6014A2D5EB13FCED92E7FD2274FF9A
:10039000FCFDFEFF22E480F8A2D574FF13FC7D80F3
:0303A000E480EF07
:1006AA00020455E493A3F8E493A34003F68001F20D
:1006BA0008DFF48029E493A3F85407240CC8C33351
:1006CA00C4540F4420C8834004F456800146F6DF20
:1006DA00E4800B0102040810204080900026E47E8A
:1006EA00019360BCA3FF543F30E509541FFEE49315
:1006FA00A360010ECF54C025E060A840B8E493A3DC
:10070A00FAE493A3F8E493A3C8C582C8CAC583CA06
:10071A00F0A3C8C582C8CAC583CADFE9DEE780BEBE
:0100400000BF
:1003A300BB010689828A83E0225002E722BBFE0258
:0903B300E32289828A83E493228B
:1003BC00C2D5EC30E709B2D5E4C39DFDE49CFCEE5C
:1003CC0030E715B2D5E4C39FFFE49EFE120400C3D0
:1003DC00E49DFDE49CFC800312040030D507C3E4CB
:0603EC009FFFE49EFE22CB
:0E03F200C3E49FFFE49EFEE49DFDE49CFC221C
:10040000BC000BBE0029EF8DF084FFADF022E4CCE0
:10041000F875F008EF2FFFEE33FEEC33FCEE9DECA9
:10042000984005FCEE9DFE0FD5F0E9E4CEFD22EDEF
:10043000F8F5F0EE8420D21CFEADF075F008EF2F39
:10044000FFED33FD4007985006D5F0F222C398FD2A
:050450000FD5F0EA22C7
:00000001FF
